:100000000C944D010C944F080C9428080C94750125
:100010000C9475010C9475010C9475010C94750188
:100020000C9475010C9475010C9475010C94750178
:100030000C9475010C9475010C9475010C94750168
:100040000C94DE070C9475010C94AC070C94860795
:100050000C9475010C9475010C9475010C94750148
:100060000C9475010C947501000000000000005F05
:1000700000000007000700147F147F14242A7F2A41
:10008000122313086462364955225000050300000C
:10009000001C2241000041221C0014083E081408E4
:1000A000083E0808005030000008080808080060F2
:1000B00060000020100804023E5149453E00427F86
:1000C000400042615149462141454B311814127F8D
:1000D0001027454545393C4A494930017109050316
:1000E0003649494936064949291E0036360000007E
:1000F0005636000008142241001414141414004150
:100100002214080201510906324979413E7E11113B
:10011000117E7F494949363E414141227F4141227A
:100120001C7F494949417F090909013E4149497AF2
:100130007F0808087F00417F41002040413F017F48
:10014000081422417F404040407F020C027F7F0420
:1001500008107F3E4141413E7F090909063E415159
:10016000215E7F09192946464949493101017F012C
:10017000013F4040403F1F2040201F3F4038403F4C
:100180006314081463070870080761514945430068
:100190007F41410002040810200041417F00040219
:1001A0000102044040404040000102040020545439
:1001B00054787F48444438384444442038444448C0
:1001C0007F3854545418087E0901020C5252523E92
:1001D0007F0804047800447D40002040443D007FB7
:1001E0001028440000417F40007C041804787C08FB
:1001F00004047838444444387C1414140808141453
:10020000187C7C080404084854545420043F44409B
:10021000203C4040207C1C2040201C3C4030403C86
:1002200044281028440C5050503C4464544C440022
:100230000836410000007F00000041360800100829
:100240000810080000000000000000080002010083
:100250000003040700000000000000000000000090
:10026000250028002B0000000000240027002A00A1
:10027000040404040404040402020202020203034C
:100280000303030301020408102040800102040854
:100290001020010204081020760811241FBECFEFA1
:1002A000D8E0DEBFCDBF11E0A0E0B1E0E2ECFCE1C0
:1002B00002C005900D92AE37B107D9F722E0AEE744
:1002C000B1E001C01D92A238B207E1F711E0CDE420
:1002D000D1E004C02197FE010E94590ECC34D10711
:1002E000C9F70E94B5080C945F0E0C94000090E0D2
:1002F000FC01EC57FD4F249180599D4FFC018491E6
:10030000882399F090E0880F991FFC01EA59FD4F6E
:10031000A591B491FC01E45AFD4F859194918FB75A
:10032000F894EC91E22BEC938FBF0895AF92BF92BB
:10033000CF92DF92EF92FF920F931F93CF93DF93B1
:100340006C017B018B01040F151FEB015E01AE18E0
:10035000BF08C017D10759F06991D601ED91FC9102
:100360000190F081E02DC6010995892B79F7C5012F
:10037000DF91CF911F910F91FF90EF90DF90CF9081
:10038000BF90AF900895FC01538D448D252F30E030
:10039000842F90E0821B930B541710F0CF96089592
:1003A00001970895FC01918D828D981761F0A28DBF
:1003B000AE0FBF2FB11D5D968C91928D9F5F9F7385
:1003C000928F90E008958FEF9FEF0895FC01918D3B
:1003D000828D981731F0828DE80FF11D858D90E0A8
:1003E00008958FEF9FEF0895FC01918D228D892F45
:1003F00090E0805C9F4F821B91098F73992708952D
:1004000087E991E00E94F40121E0892B09F420E0C2
:10041000822F089580E090E0892B29F00E9400024D
:1004200081110C9400000895FC01A48DA80FB92F30
:10043000B11DA35ABF4F2C91848D90E001968F730C
:100440009927848FA689B7892C93A089B1898C912B
:10045000837080648C93938D848D981306C002887A
:10046000F389E02D80818F7D80830895EF92FF9244
:100470000F931F93CF93DF93EC0181E0888F9B8DC7
:100480008C8D98131AC0E889F989808185FF15C081
:100490009FB7F894EE89FF896083E889F9898081A4
:1004A0008370806480839FBF81E090E0DF91CF9173
:1004B0001F910F91FF90EF900895F62E0B8D10E095
:1004C0000F5F1F4F0F731127E02E8C8D8E110CC004
:1004D0000FB607FCFACFE889F989808185FFF5CF4F
:1004E000CE010E941402F1CFEB8DEC0FFD2FF11D18
:1004F000E35AFF4FF0829FB7F8940B8FEA89FB898C
:1005000080818062CFCFCF93DF93EC01888D8823E9
:10051000B9F0AA89BB89E889F9898C9185FD03C066
:10052000808186FD0DC00FB607FCF7CF8C9185FF4B
:10053000F2CF808185FFEDCFCE010E941402E9CF7A
:10054000DF91CF91089590E0FC01E85BFD4F24918D
:10055000FC01EC57FD4F3491FC01E059FD4FE49153
:10056000EE23C9F0222339F0233001F1A8F4213021
:1005700019F1223029F1F0E0EE0FFF1FE45AFD4F90
:10058000A591B4918FB7F894EC91611126C0309584
:100590003E233C938FBF08952730A9F02830C9F03F
:1005A000243049F7809180008F7D03C080918000C6
:1005B0008F7780938000DFCF84B58F7784BDDBCFCA
:1005C00084B58F7DFBCF8091B0008F778093B00092
:1005D000D2CF8091B0008F7DF9CF3E2BDACF8E3015
:1005E00008F08E508770806480937C0080917A0040
:1005F000806480937A0080917A0086FDFCCF8091A0
:1006000078009091790008953FB7F8948091830124
:1006100090918401A0918501B091860126B5A89B97
:1006200005C02F3F19F00196A11DB11D3FBFBA2F84
:10063000A92F982F8827BC01CD01620F711D811D44
:10064000911D42E0660F771F881F991F4A95D1F7C9
:1006500008958F929F92AF92BF92CF92DF92EF92C6
:10066000FF924B015C010E9404036B017C010E941C
:1006700004036C197D098E099F09683E734081054A
:100680009105A8F321E0821A9108A108B10888EE2B
:10069000C80E83E0D81EE11CF11C81149104A10452
:1006A000B10429F7FF90EF90DF90CF90BF90AF900B
:1006B0009F908F9008950895089590E080E00895A8
:1006C0004F925F926F927F92AF92BF92CF92DF92E2
:1006D000EF92FF920F931F93CF93DF93CDB7DEB7C7
:1006E00028970FB6F894DEBF0FBECDBF69837A831B
:1006F0008B839C8329013A01ED82FE820F83188748
:1007000020E030E040EA51E40E948C0D181664F0BD
:1007100020E030E040EA51EC69817A818B819C8154
:100720000E94340C60E087FD61E088E00E94A30233
:1007300020E030E040EA51E4C301B2010E948C0D98
:10074000181654F020E030E040EA51ECC301B20149
:100750000E94340C60E087FD61E089E00E94A30202
:1007600020E030E040EA51E46D817E818F81988500
:100770000E948C0D181664F020E030E040EA51EC45
:100780006D817E818F8198850E94340C60E087FDA9
:1007900061E08AE00E94A30220E030E040EA51E4F8
:1007A000C601B5010E948C0D181654F020E030E00F
:1007B00040EA51ECC601B5010E94340C60E087FDAF
:1007C00061E08BE028960FB6F894DEBF0FBECDBF78
:1007D000DF91CF911F910F91FF90EF90DF90CF901D
:1007E000BF90AF907F906F905F904F900C94A3025A
:1007F0009F92AF92BF92CF92DF92EF92FF920F93B0
:100800001F93CF93DF93982E88EEE82E83E0F82E87
:1008100000E010E0D0E0C0E0892D0E94EF02BC01B2
:10082000990F880B990B0E94DC0C5B016C019801FD
:100830004D2F5C2F0E948C0D18161CF48501DC2DA9
:10084000CD2D81E0E81AF10839F720E030EC4FEFC8
:1008500053E4B8018D2F9C2F0E94C70B2CE030E38E
:1008600040E45DE30E94910D21E834E045E35FE35D
:100870000E94910DDF91CF911F910F91FF90EF900A
:10088000DF90CF90BF90AF909F900895EF92FF922E
:100890000F931F93CF93DF93EC01042F8E810E945F
:1008A000A30260E088850E94A302FC80ED8018E02E
:1008B000602F661F6627661F8E2D0E94A302000F01
:1008C00061E08F2D0E94A30260E08F2D0E94A302A1
:1008D000115071F761E08885DF91CF911F910F91E1
:1008E000FF90EF900C94A302CF93DF93262FC4E3E5
:1008F000D2E06A850E94030E492F9C87822F90E0E8
:100900006B8529E3629F612D1124669570E06F5F0E
:100910007F4F0E940F0E8D87406860E0CE010E94DD
:1009200046044D85406460E0CE01DF91CF910C9488
:100930004604CF93DF9360E080E00E947404D0E02F
:10094000C0E080913F0286958695869590913E0203
:10095000899FC0011124C817D90740F440E061E025
:1009600084E392E00E9446042196EBCF60E080E0B1
:10097000DF91CF910C9474040C949904FB010190C5
:100980000020E9F73197AF01461B570BDC01ED91D1
:10099000FC910280F381E02D09948F929F92AF9297
:1009A000BF92EF92FF920F931F93CF93DF93CDB738
:1009B000DEB7A1970FB6F894DEBF0FBECDBF7C01A6
:1009C000FA01CB0119A2223008F42AE08E010F5D52
:1009D0001F4F822E912CB12CA12CBF01A501940197
:1009E0000E94230EF901CA016A300CF5605DD8013E
:1009F0006E938D01232B242B252B79F790E080E03B
:100A0000109721F0BD01C7010E94BE04A1960FB648
:100A1000F894DEBF0FBECDBFDF91CF911F910F9134
:100A2000FF90EF90BF90AF909F908F900895695C7A
:100A3000DECFCF93DF93BC0187E991E00E94BE0433
:100A4000EC0162E271E087E991E00E94BE048C0F44
:100A50009D1FDF91CF910895BC0184E392E00C9437
:100A6000BE042F923F924F925F926F927F928F922D
:100A70009F92AF92BF92CF92DF92EF92FF921F931D
:100A8000CF93DF93EC016A017B01722EAB019601DB
:100A9000CB01B6010E94FE0D65E271E0811126C016
:100AA00046015701E894B7F82FEF3FEF4FE75FE7B4
:100AB000C501B4010E94FE0D81110CC02FEF3FEF64
:100AC0004FE75FE7C501B4010E94340C69E271E0B1
:100AD000181664F02FEF3FEF4FE75FE4C701B60150
:100AE0000E948C0D1816B4F46DE271E0CE01DF9116
:100AF000CF911F91FF90EF90DF90CF90BF90AF907C
:100B00009F908F907F906F905F904F903F902F902D
:100B10000C94BE042FEF3FEF4FE75FECC701B60127
:100B20000E94340C87FDE0CF20E030E0A901C7012E
:100B3000B6010E94340C312C212C87FF0DC0E881B6
:100B4000F9810190F081E02D6DE2CE0109951C0143
:100B5000F7FAF094F7F8F09410E060E070E080E0CD
:100B60009FE3711641F020E030E040E251E40E9442
:100B7000390C1F5FF6CFA70196010E94C80B2B010D
:100B80003C010E94AB0C4B015C012AE0BC01A401BA
:100B9000CE010E94CD047C01E20CF31C1123E1F193
:100BA000C501B4010E94DA0C9B01AC01C301B20182
:100BB0000E94C70B4B015C01E881F9810190F08133
:100BC000E02D6EE2CE010995E80EF91E115020F1DC
:100BD00020E030E040E251E4C501B4010E94910DF3
:100BE0002B013C010E94AB0C4B01B12CA12C2AE043
:100BF000B501A401CE010E94CD04E80EF91EC50185
:100C0000B4010E94DA0C9B01AC01C301B2010E9445
:100C1000C70B4B015C01DACFC701DF91CF911F9168
:100C2000FF90EF90DF90CF90BF90AF909F908F900C
:100C30007F906F905F904F903F902F900895CF934B
:100C4000DF93AB01BC0122E087E991E00E9431050E
:100C5000EC0162E271E087E991E00E94BE048C0F32
:100C60009D1FDF91CF9108954F925F926F927F9277
:100C70008F929F92AF92BF92CF92DF92EF92FF92AC
:100C80000F931F93CF93DF9300D000D0CDB7DEB783
:100C90002A013B0109831A832B833C830E94190597
:100CA00081E391E00E941905C301B2010E941F0671
:100CB00087E391E00E94190569817A818B819C818B
:100CC0000E941F068DE391E00E941905C701B6013D
:100CD0000E941F0683E491E00E941905C501B4013A
:100CE0000F900F900F900F90DF91CF911F910F9168
:100CF000FF90EF90DF90CF90BF90AF909F908F903C
:100D00007F906F905F904F900C941F062F923F92B0
:100D10004F925F926F927F928F929F92AF92BF920B
:100D2000CF92DF92EF92FF920F931F93CF93DF93B7
:100D300000D000D0CDB7DEB71C012A013B010983EA
:100D40001A832B833C8360E080E00E947404C1011D
:100D50000E942C0561E080E00E94740481E391E030
:100D60000E942C0522E0B301A20184E392E00E94DC
:100D7000310589E491E00E942C0562E080E00E9448
:100D8000740487E391E00E942C0522E049815A8196
:100D90006B817C8184E392E00E94310589E491E0DB
:100DA0000E942C0563E080E00E9474048DE391E0D2
:100DB0000E942C0522E0B701A60184E392E00E9484
:100DC000310589E491E00E942C0564E080E00E94F6
:100DD000740483E491E00E942C0522E0B501A40193
:100DE00084E392E00E94310589E491E00F900F9036
:100DF0000F900F90DF91CF911F910F91FF90EF9087
:100E0000DF90CF90BF90AF909F908F907F906F902A
:100E10005F904F903F902F900C942C05CF92DF92D3
:100E2000EF92FF920F931F93CF93DF9300D000D0E8
:100E30001F92CDB7DEB767FD66C07C01862F90E0BC
:100E4000603208F44FC0809725E0289FB001299FA9
:100E5000700D112468597F4F45E050E0CE01019696
:100E60000E94BE0B8E010F5F1F4F680185E0C80E08
:100E7000D11CF80141918F0161E0C7010E94460435
:100E80000C151D05B1F740E061E0C7010E94460462
:100E9000F701848590E00696628570E00E940F0E4F
:100EA0008487892B79F4858590E00196638529E311
:100EB000629F612D1124669570E06F5F7F4F0E94E5
:100EC0000F0E858781E090E00F900F900F900F90AC
:100ED0000F90DF91CF911F910F91FF90EF90DF90D6
:100EE000CF900895FC013796EE0FFF1FEE0DFF1D0A
:100EF000008111810115110509F0B7CF45E050E0DF
:100F000068E670E0ABCF90E080E0DECF1F920F92FA
:100F10000FB60F9211242F933F934F935F936F93CC
:100F20007F938F939F93AF93BF93EF93FF9387E943
:100F300091E00E941402FF91EF91BF91AF919F91B8
:100F40008F917F916F915F914F913F912F910F9072
:100F50000FBE0F901F9018951F920F920FB60F9211
:100F600011242F938F939F93EF93FF93E091A70109
:100F7000F091A8018081E091AD01F091AE0182FD78
:100F80001BC090818091B0018F5F8F732091B10160
:100F9000821741F0E091B001F0E0E956FE4F958FE5
:100FA0008093B001FF91EF919F918F912F910F90BE
:100FB0000FBE0F901F9018958081F4CF1F920F9253
:100FC0000FB60F9211242F933F938F939F93AF935C
:100FD000BF9380917F0190918001A0918101B09198
:100FE000820130917E0123E0230F2D3758F50196C1
:100FF000A11DB11D20937E0180937F0190938001FC
:10100000A0938101B093820180918301909184012A
:10101000A0918501B09186010196A11DB11D80931B
:10102000830190938401A0938501B0938601BF91C1
:10103000AF919F918F913F912F910F900FBE0F9085
:101040001F90189526E8230F0296A11DB11DD2CF3F
:101050001F920F920FB60F9211242F933F934F932D
:101060005F936F937F938F939F93AF93BF93EF9310
:10107000FF93E0910201F09103010995FF91EF9137
:10108000BF91AF919F918F917F916F915F914F91A0
:101090003F912F910F900FBE0F901F9018951F92A8
:1010A0000F920FB60F9211242F933F934F935F939C
:1010B0006F937F938F939F93AF93BF93EF93FF9320
:1010C000E0910001F09101010995FF91EF91BF912D
:1010D000AF919F918F917F916F915F914F913F91D0
:1010E0002F910F900FBE0F901F901895E7E9F1E038
:1010F0001382128288EE93E0A0E0B0E084839583AF
:10110000A683B78388E091E09183808385EC90E0AB
:101110009587848784EC90E09787868780EC90E0C1
:10112000918B808B81EC90E0938B828B82EC90E0B2
:10113000958B848B86EC90E0978B868B118E128E2C
:10114000138E148EE4E3F2E0138212828AE191E0BE
:101150009183808383E0848384E0858385E0868334
:1011600086E0878387E080870895CF93DF93CDB7AC
:10117000DEB764970FB6F894DEBF0FBECDBF78948C
:1011800084B5826084BD84B5816084BD85B582608C
:1011900085BD85B5816085BD80916E00816080933D
:1011A0006E001092810080918100826080938100A6
:1011B00080918100816080938100809180008160B6
:1011C000809380008091B10084608093B100809111
:1011D000B00081608093B00080917A008460809339
:1011E0007A0080917A00826080937A0080917A0000
:1011F000816080937A0080917A00806880937A0081
:101200001092C100E091A701F091A80182E08083D3
:10121000E091A301F091A4011082E091A501F09169
:10122000A6018FEC80831092AF01E091AB01F091A9
:10123000AC0186E08083E091A901F091AA01808150
:1012400080618083E091A901F091AA01808188608A
:101250008083E091A901F091AA0180818068808358
:10126000E091A901F091AA0180818F7D808388E0BF
:101270000E94770189E00E9477018AE00E9477014D
:101280008BE00E94770184E580933E0280E38093A7
:101290003F0210923D021092400210924102E2E49D
:1012A000F2E080E4DF011D928A95E9F7809138022F
:1012B0000E947701809139020E94770180913A0261
:1012C0000E94770180913B020E94770180913C024D
:1012D0000E94770161E080913B020E94A30261E0DD
:1012E00080913C020E94A30260E080913B020E9438
:1012F000A30264E670E080E090E00E94290361E0D0
:1013000080913B020E94A30241E260E084E392E00C
:101310000E94460443E160E084E392E00E944604B8
:1013200080913D0242EC813039F440EE60E084E38C
:1013300092E00E94460445E060E084E392E00E946F
:10134000460440E260E084E392E00E94460449E003
:1013500060E084E392E00E9446040E94990448E021
:1013600060E084E392E00E9446044CE060E084E3A5
:1013700092E00E94460464E670E080E090E00E9403
:10138000290340E860E084E392E00E94460440E4E0
:1013900060E084E392E00E9446040E94990460E0C9
:1013A00081E00E9474048CE491E00E942C0561E0CD
:1013B00081E00E94740487E591E00E942C0562E0C0
:1013C00081E00E94740481E691E00E942C058CEB80
:1013D00094E09093010180930001809169008C7FDB
:1013E000816080936900E89A60ED77E080E090E0AA
:1013F0000E94290383E10E94EF02BC01990F880B30
:10140000990B0E94DC0C20E030EC4FEF53E40E947B
:10141000340C87FFD2C08EE090E00E94F80369830D
:101420007A838B839C836093930170939401809360
:101430009501909396018FE090E00E94F8036D83F0
:101440007E838F83988760938F0170939001809340
:1014500091019093920180E190E00E94F8032B01AA
:101460003C0140928B0150928C0160928D017092F0
:101470008E0181E190E00E94F80369877A878B876B
:101480009C87609387017093880180938901909372
:101490008A0121EE3AE744EB5FE30E94910D5B0184
:1014A0006C0121EE3AE744EB5FE3C301B2010E9415
:1014B000910D6D877E878F87988B21EE3AE744EBFD
:1014C0005FE36D817E818F8198850E94910D698B8C
:1014D0007A8B8B8B9C8B21EE3AE744EB5FE369813F
:1014E0007A818B819C810E94910DED84FE840F8511
:1014F000188929893A894B895C890E94600389840B
:101500009A84AB84BC84730162010D811E812F819A
:10151000388549815A816B817C818DE691E00E94FA
:1015200086068090870190908801A0908901B090F4
:101530008A01C0908B01D0908C01E0908D01F090D9
:101540008E0140908F0150909001609091017090B9
:1015500092018091930190919401A0919501B09195
:10156000960189839A83AB83BC8382E10E94EF0258
:10157000BC01990F880B990B0E94DC0C20E030EC29
:101580004FEF53E40E948C0D181654F4930182011E
:1015900049815A816B817C818DE691E00E943406FD
:1015A000A0E0B0E0AB2B09F425CF0E940002882315
:1015B00009F420CF0E9400001DCF8EE00E94EF02B0
:1015C000BC01990F880B990B0E94DC0C20E030ECD9
:1015D0004FEF53E40E94C70B2CE030E340E45DE39F
:1015E0000E94910D2B013C01409293015092940175
:1015F00060929501709296018FE00E94EF02BC010B
:10160000990F880B990B0E94DC0C20E030EC4FEF17
:1016100053E40E94C70B2CE030E340E45DE30E94FA
:10162000910D69837A838B839C8360938F01709380
:101630009001809391019093920180E10E94EF02CA
:10164000BC01990F880B990B0E94DC0C20E030EC58
:101650004FEF53E40E94C70B2CE030E340E45DE31E
:101660000E94910D6D837E838F83988760938B0199
:1016700070938C0180938D0190938E0181E10E9483
:10168000EF02BC01990F880B990B0E94DC0C20E043
:1016900030EC4FEF53E40E94C70B2CE030E340E402
:1016A0005DE30E94910D69877A878B879C876093A1
:1016B0008701709388018093890190938A015B016F
:1016C0006C01ED80FE800F81188529813A814B8164
:1016D0005C81C301B2010E94600389849A84AB8457
:1016E000BC84CD80DE80EF80F88409811A812B8153
:1016F0003C81B301A20185E791E00E9486068090BB
:10170000870190908801A0908901B0908A01C090D3
:101710008B01D0908C01E0908D01F0908E01409073
:101720008F01509090016090910170909201809192
:10173000930190919401A0919501B09196018983B4
:101740009A83AB83BC8382E10E94EF02BC01990FB4
:10175000880B990B0E94DC0C20E030EC4FEF53E437
:101760000E948C0D18160CF01BCF93018201498149
:101770005A816B817C8185E791E010CFFB01DC0110
:1017800002C005900D9241505040D8F7089550582E
:10179000BB27AA270E94DF0B0C94520D0E94440D18
:1017A00038F00E944B0D20F039F49F3F19F426F4D5
:1017B0000C94410D0EF4E095E7FB0C943B0DE92FE2
:1017C0000E94630D58F3BA176207730784079507E1
:1017D00020F079F4A6F50C94850D0EF4E0950B2E0F
:1017E000BA2FA02D0B01B90190010C01CA01A00173
:1017F0001124FF27591B99F0593F50F4503E68F1CE
:101800001A16F040A22F232F342F4427585FF3CF0E
:10181000469537952795A795F0405395C9F77EF4DF
:101820001F16BA0B620B730B840BBAF09150A1F028
:10183000FF0FBB1F661F771F881FC2F70EC0BA0FAE
:10184000621F731F841F48F4879577956795B79536
:10185000F7959E3F08F0B0CF9395880F08F0992731
:10186000EE0F9795879508950E94170D08F481E073
:1018700008950E944D0C0C94520D0E944B0D58F08F
:101880000E94440D40F029F45F3F29F00C943B0D79
:1018900051110C94860D0C94410D0E94630D68F358
:1018A0009923B1F3552391F3951B550BBB27AA2719
:1018B00062177307840738F09F5F5F4F220F331F53
:1018C000441FAA1FA9F335D00E2E3AF0E0E832D01B
:1018D00091505040E695001CCAF72BD0FE2F29D01E
:1018E000660F771F881FBB1F261737074807AB07F0
:1018F000B0E809F0BB0B802DBF01FF2793585F4F65
:101900003AF09E3F510578F00C943B0D0C94860DF7
:101910005F3FE4F3983ED4F3869577956795B79546
:10192000F7959F5FC9F7880F911D9695879597F951
:101930000895E1E0660F771F881FBB1F62177307CA
:101940008407BA0720F0621B730B840BBA0BEE1FDF
:1019500088F7E09508950E946B0D88F09F5798F0E6
:10196000B92F9927B751B0F0E1F0660F771F881FA4
:10197000991F1AF0BA95C9F714C0B13091F00E94BE
:10198000850DB1E008950C94850D672F782F882779
:10199000B85F39F0B93FCCF3869577956795B395E5
:1019A000D9F73EF490958095709561957F4F8F4F54
:1019B0009F4F0895E89409C097FB3EF49095809559
:1019C000709561957F4F8F4F9F4F9923A9F0F92F05
:1019D00096E9BB279395F695879577956795B79583
:1019E000F111F8CFFAF4BB0F11F460FF1BC06F5F69
:1019F0007F4F8F4F9F4F16C0882311F096E911C07B
:101A0000772321F09EE8872F762F05C0662371F09B
:101A100096E8862F70E060E02AF09A95660F771FAF
:101A2000881FDAF7880F9695879597F90895990F8B
:101A30000008550FAA0BE0E8FEEF16161706E80798
:101A4000F907C0F012161306E407F50798F0621BB9
:101A5000730B840B950B39F40A2661F0232B242B8E
:101A6000252B21F408950A2609F4A140A6958FEFAD
:101A7000811D811D089597F99F6780E870E060E0FF
:101A800008959FEF80EC089500240A941616170617
:101A900018060906089500240A941216130614065F
:101AA00005060895092E0394000C11F4882352F0C2
:101AB000BB0F40F4BF2B11F460FF04C06F5F7F4F7A
:101AC0008F4F9F4F089557FD9058440F551F59F061
:101AD0005F3F71F04795880F97FB991F61F09F3F1B
:101AE00079F087950895121613061406551FF2CF44
:101AF0004695F1DF08C0161617061806991FF1CF94
:101B000086957105610508940895E894BB276627BA
:101B10007727CB0197F908950E94170D08F48FEFEE
:101B200008950E94A40D0C94520D0E94440D38F0AB
:101B30000E944B0D20F0952311F00C943B0D0C945A
:101B4000410D11240C94860D0E94630D70F3959F36
:101B5000C1F3950F50E0551F629FF001729FBB27A4
:101B6000F00DB11D639FAA27F00DB11DAA1F649F40
:101B70006627B00DA11D661F829F2227B00DA11DF3
:101B8000621F739FB00DA11D621F839FA00D611D79
:101B9000221F749F3327A00D611D231F849F600D9A
:101BA000211D822F762F6A2F11249F5750409AF0C3
:101BB000F1F088234AF0EE0FFF1FBB1F661F771F4F
:101BC000881F91505040A9F79E3F510580F00C941A
:101BD0003B0D0C94860D5F3FE4F3983ED4F386955D
:101BE00077956795B795F795E7959F5FC1F7FE2BBA
:101BF000880F911D9695879597F908950E94170D66
:101C0000880B990B0895991B79E004C0991F9617CA
:101C100008F0961B881F7A95C9F78095089597FB61
:101C2000072E16F4009407D077FD09D00E94450EC8
:101C300007FC05D03EF4909581959F4F08957095CF
:101C400061957F4F0895A1E21A2EAA1BBB1BFD01CF
:101C50000DC0AA1FBB1FEE1FFF1FA217B307E4078B
:101C6000F50720F0A21BB30BE40BF50B661F771FE3
:101C7000881F991F1A9469F76095709580959095C3
:101C80009B01AC01BD01CF010895AA1BBB1B51E113
:101C900007C0AA1FBB1FA617B70710F0A61BB70BDC
:101CA000881F991F5A95A9F780959095BC01CD0181
:101CB0000895EE0FFF1F0590F491E02D0994F8941C
:021CC000FFCF54
:101CC2005B035B030000000036029601C30183023E
:101CD200F401D201E601000000000E0796015D0347
:101CE2005C030D0A006E616E00696E66006F7666B7
:101CF200004348313A20004348323A2000434833F7
:101D02003A20004348343A200020200057656C6393
:101D12006F6D6520746F0034204368616E6E656C70
:101D220000566F6C74696D6574657221004D4F4485
:0E1D32004F204143004D4F444F2044430000DA
:00000001FF
