:020000040000FA
:100000000C944D010C9475010C9475010C947501C0
:100010000C9475010C9475010C9475010C94750188
:100020000C9475010C9475010C9475010C94750178
:100030000C9475010C9475010C9475010C94750168
:100040000C9482050C9475010C9475010C94750147
:100050000C9475010C9475010C9475010C94750148
:100060000C9475010C947501000000000000005F05
:1000700000000007000700147F147F14242A7F2A41
:10008000122313086462364955225000050300000C
:10009000001C2241000041221C0014083E081408E4
:1000A000083E0808005030000008080808080060F2
:1000B00060000020100804023E5149453E00427F86
:1000C000400042615149462141454B311814127F8D
:1000D0001027454545393C4A494930017109050316
:1000E0003649494936064949291E0036360000007E
:1000F0005636000008142241001414141414004150
:100100002214080201510906324979413E7E11113B
:10011000117E7F494949363E414141227F4141227A
:100120001C7F494949417F090909013E4149497AF2
:100130007F0808087F00417F41002040413F017F48
:10014000081422417F404040407F020C027F7F0420
:1001500008107F3E4141413E7F090909063E415159
:10016000215E7F09192946464949493101017F012C
:10017000013F4040403F1F2040201F3F4038403F4C
:100180006314081463070870080761514945430068
:100190007F41410002040810200041417F00040219
:1001A0000102044040404040000102040020545439
:1001B00054787F48444438384444442038444448C0
:1001C0007F3854545418087E0901020C5252523E92
:1001D0007F0804047800447D40002040443D007FB7
:1001E0001028440000417F40007C041804787C08FB
:1001F00004047838444444387C1414140808141453
:10020000187C7C080404084854545420043F44409B
:10021000203C4040207C1C2040201C3C4030403C86
:1002200044281028440C5050503C4464544C440022
:100230000836410000007F00000041360800100829
:100240000810080000000000000000080002010083
:100250000003040700000000000000000000000090
:10026000250028002B0000000000240027002A00A1
:10027000040404040404040402020202020203034C
:100280000303030301020408102040800102040854
:1002900010200102040810207A0811241FBECFEF9D
:1002A000D8E0DEBFCDBF11E0A0E0B1E0E0E6F6E1CE
:1002B00002C005900D92AE38B107D9F721E0AEE843
:1002C000B1E001C01D92A53FB207E1F711E0CDE416
:1002D000D1E004C02197FE010E94280BCC34D10745
:1002E000C9F70E94CC050C942E0B0C94000090E0F2
:1002F000FC01EC57FD4F249180599D4FFC018491E6
:10030000882399F090E0880F991FFC01EA59FD4F6E
:10031000A591B491FC01E45AFD4F859194918FB75A
:10032000F894EC91E22BEC938FBF0895AF92BF92BB
:10033000CF92DF92EF92FF920F931F93CF93DF93B1
:100340006C017B018B01040F151FEB015E01AE18E0
:10035000BF08C017D10759F06991D601ED91FC9102
:100360000190F081E02DC6010995892B79F7C5012F
:10037000DF91CF911F910F91FF90EF90DF90CF9081
:10038000BF90AF90089590E0FC01E85BFD4F249191
:10039000FC01EC57FD4F3491FC01E059FD4FE49115
:1003A000EE23C9F0222339F0233001F1A8F42130E3
:1003B00019F1223029F1F0E0EE0FFF1FE45AFD4F52
:1003C000A591B4918FB7F894EC91611126C0309546
:1003D0003E233C938FBF08952730A9F02830C9F001
:1003E000243049F7809180008F7D03C08091800088
:1003F0008F7780938000DFCF84B58F7784BDDBCF8C
:1004000084B58F7DFBCF8091B0008F778093B00053
:10041000D2CF8091B0008F7DF9CF3E2BDACF8E30D6
:1004200008F08E508770806480937C0080917A0001
:10043000806480937A0080917A0086FDFCCF809161
:1004400078009091790008953FB7F89480919301D6
:1004500090919401A0919501B091960126B5A89B29
:1004600005C02F3F19F00196A11DB11D3FBFBA2F46
:10047000A92F982F8827BC01CD01620F711D811D06
:10048000911D42E0660F771F881F991F4A95D1F78B
:1004900008958F929F92AF92BF92CF92DF92EF9288
:1004A000FF924B015C010E9424026B017C010E94BF
:1004B00024026C197D098E099F09683E73408105ED
:1004C0009105A8F321E0821A9108A108B10888EEED
:1004D000C80E83E0D81EE11CF11C81149104A10414
:1004E000B10429F7FF90EF90DF90CF90BF90AF90CD
:1004F0009F908F900895089590E080E008954F9226
:100500005F926F927F92AF92BF92CF92DF92EF9203
:10051000FF920F931F93CF93DF93CDB7DEB728974A
:100520000FB6F894DEBF0FBECDBF69837A838B838D
:100530009C8329013A01ED82FE820F83188720E017
:1005400030E040EA51E40E945B0A181664F020E0B3
:1005500030E040EA51EC69817A818B819C810E9474
:10056000030960E087FD61E088E00E94C30120E0AC
:1005700030E040EA51E4C301B2010E945B0A181660
:1005800054F020E030E040EA51ECC301B2010E9497
:10059000030960E087FD61E089E00E94C30120E07B
:1005A00030E040EA51E46D817E818F8198850E9420
:1005B0005B0A181664F020E030E040EA51EC6D81EF
:1005C0007E818F8198850E94030960E087FD61E04C
:1005D0008AE00E94C30120E030E040EA51E4C60115
:1005E000B5010E945B0A181654F020E030E040EAA2
:1005F00051ECC601B5010E94030960E087FD61E08E
:100600008BE028960FB6F894DEBF0FBECDBFDF910A
:10061000CF911F910F91FF90EF90DF90CF90BF90FF
:10062000AF907F906F905F904F900C94C3019F921A
:10063000AF92BF92CF92DF92EF92FF920F931F93F0
:10064000CF93DF93982E88EEE82E83E0F82E00E01B
:1006500010E0D0E0C0E0892D0E940F02BC01990F8C
:10066000880B990B0E94AB095B016C0198014D2F1F
:100670005C2F0E945B0A18161CF48501DC2DCD2D21
:1006800081E0E81AF10839F720E030E040E054E476
:10069000B8018D2F9C2F0E94960820E030E040E4A6
:1006A0005DE30E94600A21E834E045E35FE30E94D5
:1006B000600ADF91CF911F910F91FF90EF90DF9033
:1006C000CF90BF90AF909F900895FC0101900020C3
:1006D000E9F73197AF01481B590BBC0187EA91E05C
:1006E0000C9496018F929F92AF92BF920F931F939B
:1006F000CF93DF93CDB7DEB7A1970FB6F894DEBFE7
:100700000FBECDBF19A2423008F44AE08E010F5D42
:100710001F4F842E912CB12CA12CA50194010E9475
:10072000F20AE62FB901CA01EA30F4F4E05DD8011B
:10073000EE938D01232B242B252B79F790E080E07D
:10074000109719F0CD010E946503A1960FB6F89499
:10075000DEBF0FBECDBFDF91CF911F910F91BF9034
:10076000AF909F908F900895E95CE1CF0C94650362
:10077000EF92FF920F931F93CF93DF93EC01042F1F
:100780008E810E94C30160E088850E94C301FC80C5
:10079000ED8018E0602F661F6627661F8E2D0E9471
:1007A000C301000F61E08F2D0E94C30160E08F2D17
:1007B0000E94C301115071F761E08885DF91CF91EC
:1007C0001F910F91FF90EF900C94C301CF93DF9393
:1007D000262FC7EAD1E06A850E94D20A492F9C875A
:1007E000822F90E06B8529E3629F612D112466952D
:1007F00070E06F5F7F4F0E94DE0A8D87406860E087
:10080000CE010E94B8034D85406460E0CE01DF91C7
:10081000CF910C94B803CF93DF9360E080E00E9407
:10082000E603D0E0C0E08091B2018695869586957A
:100830009091B101899FC0011124C817D90740F4D4
:1008400040E061E087EA91E00E94B8032196EBCF97
:1008500060E080E0DF91CF910C94E603CF92DF92CD
:10086000EF92FF920F931F93CF93DF9300D000D0AE
:100870001F92CDB7DEB767FD66C07C01862F90E082
:10088000603208F44FC0809725E0289FB001299F6F
:10089000700D112468597F4F45E050E0CE0101965C
:1008A0000E948D088E010F5F1F4F680185E0C80E02
:1008B000D11CF80141918F0161E0C7010E94B8038A
:1008C0000C151D05B1F740E061E0C7010E94B803B7
:1008D000F701848590E00696628570E00E94DE0A4A
:1008E0008487892B79F4858590E00196638529E3D7
:1008F000629F612D1124669570E06F5F7F4F0E94AB
:10090000DE0A858781E090E00F900F900F900F90A6
:100910000F90DF91CF911F910F91FF90EF90DF909B
:10092000CF900895FC013796EE0FFF1FEE0DFF1DCF
:10093000008111810115110509F0B7CF45E050E0A4
:1009400068E670E0ABCF90E080E0DECF4F925F9240
:100950006F927F928F929F92AF92BF92CF92DF92CF
:10096000EF92FF920F931F93CF936B017C01742E34
:10097000AC019B010E94CD0A882399F08CE091E0A4
:10098000CF911F910F91FF90EF90DF90CF90BF908C
:10099000AF909F908F907F906F905F904F900C944E
:1009A000650346015701E894B7F82FEF3FEF4FE793
:1009B0005FE7C501B4010E94CD0A81110DC02FEF80
:1009C0003FEF4FE75FE7C501B4010E940309181626
:1009D0001CF480E191E0D4CF2FEF3FEF4FE75FE4CD
:1009E000C701B6010E945B0A18161CF484E191E06D
:1009F000C7CF2FEF3FEF4FE75FECC701B6010E9473
:100A0000030987FDF3CF20E030E0A901C701B6015B
:100A10000E94030910E000E087FF0AC06DE287EA48
:100A200091E00E942E048C01F7FAF094F7F8F0940C
:100A3000C0E060E070E080E09FE37C1641F020E0E1
:100A400030E040E251E40E940809CF5FF6CFA701F1
:100A500096010E9497082B013C010E947A094B01E4
:100A60005C014AE00E9472037C01E00EF11ECC237F
:100A7000C1F1C501B4010E94A9099B01AC01C301E8
:100A8000B2010E9496084B015C016EE287EA91E098
:100A90000E942E04E80EF91EC15018F120E030E04B
:100AA00040E251E4C501B4010E94600A2B013C01FF
:100AB0000E947A094B01B12CA12C4AE0C501B40176
:100AC0000E947203E80EF91EC501B4010E94A90933
:100AD0009B01AC01C301B2010E9496084B015C016D
:100AE000DBCFC701CF911F910F91FF90EF90DF9067
:100AF000CF90BF90AF909F908F907F906F905F90BE
:100B00004F9008951F920F920FB60F9211242F93BA
:100B10003F938F939F93AF93BF9380918F01909159
:100B20009001A0919101B091920130918E0123E04A
:100B3000230F2D3758F50196A11DB11D20938E016D
:100B400080938F0190939001A0939101B0939201B3
:100B50008091930190919401A0919501B09196019B
:100B60000196A11DB11D8093930190939401A093D0
:100B70009501B0939601BF91AF919F918F913F9155
:100B80002F910F900FBE0F901F90189526E8230FFE
:100B90000296A11DB11DD2CFCF93DF93CDB7DEB7A3
:100BA00028970FB6F894DEBF0FBECDBF789484B5FA
:100BB000826084BD84B5816084BD85B5826085BD59
:100BC00085B5816085BD80916E00816080936E00E7
:100BD00010928100809181008260809381008091D9
:100BE000810081608093810080918000816080938A
:100BF00080008091B10084608093B1008091B0004A
:100C000081608093B00080917A00846080937A0044
:100C100080917A00826080937A0080917A0081606E
:100C200080937A0080917A00806880937A00109295
:100C3000C10088E00E94770189E00E9477018AE084
:100C40000E9477018BE00E94770184E58093B101D7
:100C500080E38093B2011092B0011092B301109220
:100C6000B401E5EBF1E080E4DF011D928A95E9F73C
:100C70008091AB010E9477018091AC010E947701C5
:100C80008091AD010E9477018091AE010E947701B1
:100C90008091AF010E94770161E08091AE010E94D6
:100CA000C30161E08091AF010E94C30160E08091C7
:100CB000AE010E94C30164E670E080E090E00E9413
:100CC000490261E08091AE010E94C30141E260E00F
:100CD00087EA91E00E94B80343E160E087EA91E08F
:100CE0000E94B8038091B00142EC813039F440EEAB
:100CF00060E087EA91E00E94B80345E060E087EA9F
:100D000091E00E94B80340E260E087EA91E00E942F
:100D1000B80349E060E087EA91E00E94B8030E94CE
:100D20000B0448E060E087EA91E00E94B8034CE0E1
:100D300060E087EA91E00E94B80364E670E080E03A
:100D400090E00E94490240E860E087EA91E00E945A
:100D5000B80340E460E087EA91E00E94B8030E9493
:100D60000B0460E081E00E94E60388E191E00E94CC
:100D7000B60361E081E00E94E60383E291E00E9415
:100D8000B60362E081E00E94E6038DE291E00E94FA
:100D9000B60368E873E180E090E00E94490283E1D5
:100DA0000E940F02BC01990F880B990B0E94AB099E
:100DB00020E030E040E054E40E94030987FFD8C0FF
:100DC0000E940B0460E080E00E94E60389E391E06A
:100DD0000E94B60381E491E00E94B6038EE090E0A9
:100DE0000E9417032B013C014092A3015092A401E1
:100DF0006092A5017092A6018FE090E00E94170317
:100E000069837A838B839C8360939F017093A00195
:100E10008093A1019093A20180E190E00E941703CA
:100E20006D837E838F83988760939B0170939C0171
:100E300080939D0190939E0181E190E00E941703B1
:100E400060939701709398018093990190939A0110
:100E500021EE3AE744EB5FE30E94600A5B016C011C
:100E600021EE3AE744EB5FE36D817E818F819885C7
:100E70000E94600A6D837E838F83988721EE3AE714
:100E800044EB5FE369817A818B819C810E94600AD7
:100E900069837A838B839C8321EE3AE744EB5FE39B
:100EA000C301B2010E94600AED80FE800F811885A7
:100EB00029813A814B815C810E947F0261E080E060
:100EC0000E94E60385E491E00E94B6036091A301CD
:100ED0007091A4018091A5019091A60142E00E9429
:100EE000A60462E080E00E94E6038FE491E00E94A5
:100EF000B60360919F017091A0018091A101909132
:100F0000A20142E00E94A60463E080E00E94E603A2
:100F100089E591E00E94B60360919B0170919C016C
:100F200080919D0190919E0142E00E94A60464E0A0
:100F300080E00E94E60383E691E00E94B6036091A0
:100F40009701709198018091990190919A0142E0E6
:100F50000E94A60461E070E080E090E00E944902F7
:100F600080E090E0892B09F41ACF0E94000017CF8F
:100F70000E940B0460E080E00E94E6038DE691E0B1
:100F80000E94B6038EE00E940F029250BC01990F9E
:100F9000880B990B0E94AB0920E030E040E45DE350
:100FA0000E94600A2B013C014092A3015092A401CF
:100FB0006092A5017092A6018FE00E940F029250EC
:100FC000BC01990F880B990B0E94AB0920E030E01F
:100FD00040E45DE30E94600A69837A838B839C838B
:100FE00060939F017093A0018093A1019093A2014F
:100FF00080E10E940F029250BC01990F880B990B5F
:101000000E94AB0920E030E040E45DE30E94600A0A
:101010006D837E838F83988760939B0170939C017F
:1010200080939D0190939E0181E10E940F02925056
:10103000BC01990F880B990B0E94AB0920E030E0AE
:1010400040E45DE30E94600A609397017093980109
:101050008093990190939A015B016C01ED80FE8071
:101060000F81188529813A814B815C81C301B201CE
:101070000E947F0261E080E00E94E60385E791E044
:101080000E94B6036091A3017091A4018091A50113
:101090009091A60142E00E94A60462E080E00E94D6
:1010A000E6038BE791E00E94B60360919F01709187
:1010B000A0018091A1019091A20142E00E94A604AA
:1010C00063E080E00E94E60381E891E00E94B603BD
:1010D00060919B0170919C0180919D0190919E0176
:1010E00042E00E94A60464E080E00E94E60387E8F4
:1010F00091E023CFE7EAF1E01382128284E091E0ED
:101100009183808383E0848384E0858385E0868384
:1011100086E0878387E080870895FB01DC0102C0B9
:1011200005900D9241505040D8F708955058BB2774
:10113000AA270E94AE080C94210A0E94130A38F0D4
:101140000E941A0A20F039F49F3F19F426F40C94F7
:10115000100A0EF4E095E7FB0C940A0AE92F0E94AE
:10116000320A58F3BA17620773078407950720F00D
:1011700079F4A6F50C94540A0EF4E0950B2EBA2FD0
:10118000A02D0B01B90190010C01CA01A00111248D
:10119000FF27591B99F0593F50F4503E68F11A1639
:1011A000F040A22F232F342F4427585FF3CF4695CA
:1011B00037952795A795F0405395C9F77EF41F16EC
:1011C000BA0B620B730B840BBAF09150A1F0FF0FB6
:1011D000BB1F661F771F881FC2F70EC0BA0F621FA2
:1011E000731F841F48F4879577956795B795F79592
:1011F0009E3F08F0B0CF9395880F08F09927EE0F27
:101200009795879508950E94E60908F481E008956E
:101210000E941C090C94210A0E941A0A58F00E948C
:10122000130A40F029F45F3F29F00C940A0A511187
:101230000C94550A0C94100A0E94320A68F3992300
:10124000B1F3552391F3951B550BBB27AA276217C2
:101250007307840738F09F5F5F4F220F331F441FCF
:10126000AA1FA9F335D00E2E3AF0E0E832D0915003
:101270005040E695001CCAF72BD0FE2F29D0660FF0
:10128000771F881FBB1F261737074807AB07B0E833
:1012900009F0BB0B802DBF01FF2793585F4F3AF039
:1012A0009E3F510578F00C940A0A0C94550A5F3F52
:1012B000E4F3983ED4F3869577956795B795F795BF
:1012C0009F5FC9F7880F911D9695879597F90895A7
:1012D000E1E0660F771F881FBB1F62177307840743
:1012E000BA0720F0621B730B840BBA0BEE1F88F752
:1012F000E09508950E943A0A88F09F5798F0B92F18
:101300009927B751B0F0E1F0660F771F881F991F3A
:101310001AF0BA95C9F714C0B13091F00E94540A7E
:10132000B1E008950C94540A672F782F8827B85F8E
:1013300039F0B93FCCF3869577956795B395D9F792
:101340003EF490958095709561957F4F8F4F9F4F9C
:101350000895E89409C097FB3EF4909580957095A8
:1013600061957F4F8F4F9F4F9923A9F0F92F96E9F1
:10137000BB279395F695879577956795B795F11166
:10138000F8CFFAF4BB0F11F460FF1BC06F5F7F4F03
:101390008F4F9F4F16C0882311F096E911C0772315
:1013A00021F09EE8872F762F05C0662371F096E81E
:1013B000862F70E060E02AF09A95660F771F881FED
:1013C000DAF7880F9695879597F90895990F000891
:1013D000550FAA0BE0E8FEEF16161706E807F90707
:1013E000C0F012161306E407F50798F0621B730BA2
:1013F000840B950B39F40A2661F0232B242B252B23
:1014000021F408950A2609F4A140A6958FEF811DC5
:10141000811D089597F99F6780E870E060E0089566
:101420009FEF80EC089500240A94161617061806FC
:101430000906089500240A941216130614060506D8
:101440000895092E0394000C11F4882352F0BB0F69
:1014500040F4BF2B11F460FF04C06F5F7F4F8F4FCC
:101460009F4F089557FD9058440F551F59F05F3F07
:1014700071F04795880F97FB991F61F09F3F79F0B6
:1014800087950895121613061406551FF2CF469538
:10149000F1DF08C0161617061806991FF1CF8695BA
:1014A0007105610508940895E894BB27662777279E
:1014B000CB0197F908950E94E60908F48FEF08958B
:1014C0000E94730A0C94210A0E94130A38F00E94A9
:1014D0001A0A20F0952311F00C940A0A0C94100AB1
:1014E00011240C94550A0E94320A70F3959FC1F39F
:1014F000950F50E0551F629FF001729FBB27F00DC2
:10150000B11D639FAA27F00DB11DAA1F649F662716
:10151000B00DA11D661F829F2227B00DA11D621F65
:10152000739FB00DA11D621F839FA00D611D221F1F
:10153000749F3327A00D611D231F849F600D211D03
:10154000822F762F6A2F11249F5750409AF0F1F086
:1015500088234AF0EE0FFF1FBB1F661F771F881FEF
:1015600091505040A9F79E3F510580F00C940A0A13
:101570000C94550A5F3FE4F3983ED4F38695779533
:101580006795B795F795E7959F5FC1F7FE2B880F95
:10159000911D9695879597F908950E94E609880B05
:1015A000990B0895991B79E004C0991F961708F0CC
:1015B000961B881F7A95C9F78095089597FB072E8B
:1015C00016F4009407D077FD09D00E94140B07FC95
:1015D00005D03EF4909581959F4F08957095619543
:1015E0007F4F0895A1E21A2EAA1BBB1BFD010DC05F
:1015F000AA1FBB1FEE1FFF1FA217B307E407F507C3
:1016000020F0A21BB30BE40BF50B661F771F881F9E
:10161000991F1A9469F760957095809590959B0134
:10162000AC01BD01CF010895AA1BBB1B51E107C04E
:10163000AA1FBB1FA617B70710F0A61BB70B881F62
:10164000991F5A95A9F780959095BC01CD010895F1
:10165000EE0FFF1F0590F491E02D0994F894FFCF51
:10166000000000002E0496017C027B026E616E0079
:10167000696E66006F76660057656C636F6D6520F6
:10168000746F0034204368616E6E656C00566F6C39
:1016900074696D6574657221004D4F444F2041435C
:1016A000002856290043483120524D533A20004328
:1016B000483220524D533A200043483320524D5374
:1016C0003A200043483420524D533A20004D4F44B5
:1016D0004F204443004348313A20004348323A20E7
:0E16E000004348333A20004348343A200000CB
:107E0000112484B714BE81FFF0D085E080938100F7
:107E100082E08093C00088E18093C10086E0809377
:107E2000C20080E18093C4008EE0C9D0259A86E02C
:107E300020E33CEF91E0309385002093840096BBD3
:107E4000B09BFECF1D9AA8958150A9F7CC24DD24C4
:107E500088248394B5E0AB2EA1E19A2EF3E0BF2EE7
:107E6000A2D0813461F49FD0082FAFD0023811F036
:107E7000013811F484E001C083E08DD089C08234E0
:107E800011F484E103C0853419F485E0A6D080C0E4
:107E9000853579F488D0E82EFF2485D0082F10E0AE
:107EA000102F00270E291F29000F111F8ED06801E7
:107EB0006FC0863521F484E090D080E0DECF843638
:107EC00009F040C070D06FD0082F6DD080E0C81688
:107ED00080E7D80618F4F601B7BEE895C0E0D1E017
:107EE00062D089930C17E1F7F0E0CF16F0E7DF06D8
:107EF00018F0F601B7BEE89568D007B600FCFDCFD4
:107F0000A601A0E0B1E02C9130E011968C91119780
:107F100090E0982F8827822B932B1296FA010C0160
:107F200087BEE89511244E5F5F4FF1E0A038BF0790
:107F300051F7F601A7BEE89507B600FCFDCF97BE46
:107F4000E89526C08437B1F42ED02DD0F82E2BD052
:107F50003CD0F601EF2C8F010F5F1F4F84911BD097
:107F6000EA94F801C1F70894C11CD11CFA94CF0C13
:107F7000D11C0EC0853739F428D08EE10CD085E9AC
:107F80000AD08FE07ACF813511F488E018D01DD067
:107F900080E101D065CF982F8091C00085FFFCCF94
:107FA0009093C60008958091C00087FFFCCF809118
:107FB000C00084FD01C0A8958091C6000895E0E648
:107FC000F0E098E1908380830895EDDF803219F02E
:107FD00088E0F5DFFFCF84E1DECF1F93182FE3DFCA
:107FE0001150E9F7F2DF1F91089580E0E8DFEE27F6
:047FF000FF270994CA
:027FFE00040479
:00000001FF
