:1000000014C023C022C021C020C01FC043C01DC0D7
:100010001CC01BC01AC01AC018C017C016C015C01B
:1000200014C013C012C011C010C011241FBECFE5F0
:10003000D1E0DEBFCDBF20E0A0E6B0E001C01D9260
:10004000A436B207E1F787D09FC0DACF1F920F9294
:100050000FB60F9211242F938F939F93C39A2FEB78
:1000600087E299E0215080409040E1F700C0000015
:10007000C3982FEB87E299E0215080409040E1F750
:1000800000C000009F918F912F910F900FBE0F9095
:100090001F9018951F920F920FB60F9211242F9355
:1000A0008F939F93C59A2FEB87E299E02150804070
:1000B0009040E1F700C00000C5982FEB87E299E07F
:1000C000215080409040E1F700C000008091620024
:1000D00090916300892B49F08091600090916100BC
:1000E0000196909361008093600089B719BE9F913B
:1000F0008F912F910F900FBE0F901F90189588E34E
:1001000087BB8BB780628BBF80B5816080BD80B7B5
:1001100080BF83B7836083BF82B712BE789408958F
:100120009C0181E090E09093630080936200809155
:100130006000909161008217930724F499B7926050
:1001400099BFF5CF10926300109262001092610087
:10015000109260000895D3DFC49A2FEB87E299E0F4
:10016000215080409040E1F700C00000C4982FEB80
:1001700087E299E0215080409040E1F700C0000004
:0C0180008AE090E0CDDFE8CFF894FFCFDC
:00000001FF
